:020000040000fa
:080000000001040000000000f3
:020000040000fa
:10020000af89200080ff200000018800000000006e
:10021000050007000c000700a20f0200000000000c
:100220000040da000000fe004440a900000c20005d
:100230000000e0000300320000002000a001880060
:100240004440a8000000060000102100010020002a
:100250001600370062004000e080480091018800ed
:100260009001ba0062004000e080480091018800df
:100270009002ba0062004000e08048000002eb00fb
:100280006028e10005003a008301e900070033001f
:10029000038009000059eb00040037006128e100e9
:1002a000010032000082eb00050007009101880088
:1002b0001001ba000200e000e6ff3a00000005006d
:1002c000910188008002780062004000e0804800d0
:1002d0003559ba008301e900080032002559ba00f7
:1002e0008301e900050032000400e000f4ff320061
:1002f00015d9ba008301e900f1ff3a0000000600b9
:10030000889fbe008a9fbe008c1f7800e200070015
:10031000e900330003866c006450e1002e003200d7
:100320006420e100330032006150e1002f00320010
:100330006120e1003100320085855500eb07b000f7
:1003400009002000080420000500370008044400cc
:1003500089844c000a0031000603430087834b0068
:100360000001530081815b00f8ff33000203be00ef
:100370000800a0000804440089844c00f6ff3900fe
:10038000c639dd0083017300010032001300200034
:100390008904d1000884d3000998a3000500320025
:1003a0000800a7000300a0008904d1000884d3003e
:1003b0008b05e8008904d1000884d3000001eb001c
:1003c0000281d200cc00070001f0a1000cf0a700d0
:1003d00001f0a000c10037006420e100c30032003a
:1003e0000801be000200be00f7ff37006120e100f7
:1003f000be0032006000b800f3ff370000002000ac
:1004000001f82700f0ff37000001be00e000070000
:100410000470a70003f0a10003f8a30013003a0042
:100420006509b10010003200090035006928e100bb
:100430000200350001002800000005000000400017
:10044000818048008502e900fcff3a0000000600b8
:10045000f88f4200050035008100d1000080d300f4
:100460008502e800fcff3a00000006008000eb0077
:1004700000000500889fbe008a9fbe00010578002d
:100480000100e0000400350008003c000000e0002e
:10049000200032000500370060001000e0801800e6
:1004a00002003b0001f02c001a0037000004be00df
:1004b0006011b8006b0920000982cf0002003900ea
:1004c0000882cf000441b000694252000e003200a1
:1004d00008003b0082817100610164008904d10041
:1004e0000884d3008b05e8000442e800f9ff3a00d5
:1004f000050037000804440089844c008b05e9009e
:100500000442e900fbff3a007b0007000af0a70065
:1005100001f0a0004f05be004f04be000000060021
:1005200003f0a200889fbe008a9fbe008c1f780047
:1005300059000700600033006450e1004f003200b2
:100540006420e1005200320003826c0007003b008f
:100550000905d0000306d000820f54000c065d0090
:100560000200390002003200890178000306780099
:100570008582550004003d000003fd008103fd005d
:100580008502ea008b854200840f720002003b0066
:1005900060001000e08018006011b8000005eb005a
:1005a0007a28e1000a00390006007800c75ddd0006
:1005b000f707b200878075002d0037008281710037
:1005c0000a017800610560008180d1000080d300bd
:1005d0008502e900f9ff3b000604400087844800db
:1005e00002003b0060041400e0841c000988a300a2
:1005f000070032008a81710082817100610164000c
:100600008904d1000884d3008b05e8001700370067
:100610000978a30013003a000b00e0001300340037
:100620008b05e9000804440089844c000a447400e6
:100630000978a3000d003a000b00e0000700340029
:100640008b05e9000804440089844c0001003a004d
:100650000b0020000978a300f7ff32000001eb0037
:1006600002003700828171000a0178002200070031
:100670000cf0a70001f0a000180037006420e10092
:1006800002003a00838f6c00180033000801be009e
:100690000200be00110037000004be003c0007004d
:1006a0000003be000405be000200be0038000700c3
:1006b000844f7500000006000200be006450e10097
:1006c000050036006420e100020036000968a3003e
:1006d00001003a000800be000160a0004f0678004b
:1006e0004f05be004f04be0000000600f0ff2f00c3
:1006f000f1ff2700f9ff37008100200061805500dd
:100700000b003d000b00200061fe2f000100e10006
:100710001d00340082817100610164008904d100f0
:100720000884d3000000e800faff3a0071002000be
:1007300061006400030070000200600009003200e4
:1007400061044400e0844c000988a50005003200e3
:100750008b05e8006808e10002003a008904d10036
:100760000884d300f20f20000258e10005003d008c
:10077000c75ddd00f907b2008980750008007800c8
:10078000000006000bf827008b0078000000050031
:10079000c70ade00f107b200f50fb2000800320010
:1007a000e1cf4200020032000170a00024000500e9
:1007b000810f7000010032000408050044000500ac
:1007c000810f700002003a00140005008502e90064
:1007d0000000400081c04800fcff3b000170a00009
:1007e000240005000000fa000000eb00e040880053
:1007f0000000eb004041880010002000004188000c
:1008000010002000204188001000200010418800c6
:100810000000eb00904288000000eb00c04288001e
:100820008f0307000000eb00e04288000000eb00af
:10083000f04288000000eb00004388000000eb005d
:10084000104388000000eb00204388000000eb000c
:10085000404388000000eb00504388000000eb009c
:10086000704388000000eb00804388000000eb002c
:10087000904388000000eb00a04388000000eb00dc
:10088000b04388000000eb00c04388000000eb008c
:100890004041880040418000e30f50000a003e00c4
:1008a00041832000404180000000d00081004000d2
:1008b0000000eb0080087800404180000000e80064
:1008c00040418800f3ff37000000eb004041880002
:1008d00040418000e10f500010003e004041800088
:1008e0000000d00062842000820040000000eb0085
:1008f00080087800404180000000d000a2842000e1
:10090000820040000000eb00800878004041800039
:100910000000e80040418800edff37000000eb00d8
:10092000504188000000eb00604188000000eb00af
:10093000704188000000eb00804188000000eb005f
:10094000904188000040eb003ce8b7000040eb001d
:100950003de8b7000040eb003ee8b7000040eb0088
:100960003fe8b7000040eb0040e8b7000000eb00b4
:10097000704288000000eb008042880010002000d8
:10098000b04288005a08a9005a28a9005a48a9006c
:100990005a68a9005a88a9005aa8a9005ac8a900eb
:1009a0005ae8a9005b08a90000002700a0048800fd
:1009b00060002500c0048800400420000005880075
:1009c00081e0a8000080eb00101688000080eb009a
:1009d0000016880000e021004015880000e021009a
:1009e00040168800f0132000301688000000eb004d
:1009f000a016880000302000901688000000eb0050
:100a000000088800b05d2000100888008460a900fc
:100a10008c60a80000002800200888008500a9003c
:100a20008d00a900505320001011880000002800fc
:100a30000011880030ec2f004015880020002000b5
:100a400030158800000e2000001588000000eb0023
:100a500050158800e0412000201588000000eb00c0
:100a600010158800a1e2a8009b0307008f03070070
:100a70000080fa00000006000000fa008460a9006f
:100a80005a08a8000080fa0000400600801f780085
:100a90000000fa008720a90030428000d0108800b2
:100aa0008f20a9000080fa004f0078000040060067
:100ab0000200fa005c08e200050032000000eb00d2
:100ac000e042880010002000000f78000500370089
:100ad000e04280000000e800e04288000000eb00f7
:100ae000000f78001e0078000080fa000000060069
:100af0000200fa0070438000e20f5000050036004b
:100b00000000eb007043880010002000000f780008
:100b100005003700704380000000e8007043880043
:100b20000000eb00000f78001e0078000080fa0043
:100b3000000006000200fa0080438000e60f50002b
:100b4000050036000000eb00804388001000200004
:100b5000000f780005003700804380000000e800a7
:100b6000804388000000eb00000f78001e00780032
:100b70000080fa00000006000200fa0090438000a6
:100b8000ee0f5000050036000000eb009043880097
:100b900010002000000f780005003700904380000f
:100ba0000000e800904388000000eb00000f780090
:100bb0001e0078000080fa00000006000200fa0023
:100bc000f0428000ec0f5000050036000000eb0002
:100bd000f042880010002000000f78000500370068
:100be000f04280000000e800f04288000000eb00c6
:100bf000000f78001e0078000080fa000000060058
:100c00000200fa0000438000f90f50000500360092
:100c10000000eb000043880010002000000f780067
:100c200005003700004380000000e8000043880012
:100c30000000eb00000f78001e0078000080fa0032
:100c4000000006000200fa00114380009006200018
:100c5000808f5000050036000000eb001043880034
:100c600010002000000f78000500370010438000be
:100c70000000e800104388000000eb00000f78003f
:100c80001e0078000080fa00000006000200fa0052
:100c900021438000300d2000808f50000500360079
:100ca0000000eb002043880010002000000f7800b7
:100cb00005003700204380000000e8002043880042
:100cc0000000eb00000f78001e0078000080fa00a2
:100cd000000006000200fa0041438000c0672000c7
:100ce000808f5000050036000000eb004043880074
:100cf00010002000000f78000500370040438000fe
:100d00000000e800404388000000eb00000f78007e
:100d10001e0078000080fa00000006000200fa00c1
:100d200051438000709f2100808f500005003600e5
:100d30000000eb005043880010002000000f7800f6
:100d400005003700504380000000e8005043880051
:100d50000000eb00000f78001e0078000080fa0011
:100d6000000006000400fa00000f780060438000d5
:100d70009e0f5000050036000000eb006043880025
:100d80001000200010079800050037006043800025
:100d90000000e800604388000000eb0010079800a6
:100da0001e0090000080fa00000006000600fa0015
:100db0000000eb00000f78000000eb001007980027
:100dc000d04280004400de00610060000000e000ce
:100dd00005003a00d04280004500de00610060005e
:100de0000000e000030032000000eb002007980044
:100df00059003700c3c2bf000080fb004300de0083
:100e00000080fb00610060000000e00012003a007a
:100e10000408e20010003a00004080000000e800f2
:100e200000408800e20f5000090036000000eb008f
:100e30000040880010002000204088005ac8a80008
:100e400010002000000f7800460007000200370065
:100e50000000eb00000f7800c3c2bf000080fb0061
:100e60004300de000080fb00610060000000e00045
:100e70000c0032000408e2000a003200004080004a
:100e80000000e80000408800e20f50000500360036
:100e90000000eb00004088000000eb0020408800cc
:100ea0005ac8a900d5c2bf000080fb0061006000e5
:100eb0000000e00012003a000608e20010003a00cc
:100ec000104080000000e80010408800e20f500051
:100ed000090036000000eb001040880010002000e0
:100ee000304088005ae8a80010002000000f780069
:100ef0002b000700020037000000eb0010079800ed
:100f0000d5c2bf000080fb00610060000000e0006f
:100f10000e0032000608e2000c0032001040800093
:100f20000000e80010408800e20f50000700360083
:100f30000000eb00104088000000eb00304088000b
:100f40005ae8a90010002000904288001e0090007e
:100f50001e004000200798002e0090000080fa003c
:100f6000000006000200fa005a88a8000000eb000a
:100f7000000f78002208e20002003a001000200072
:100f8000000f78001e007800104188005202070010
:100f9000460207005a88a9000080fa0000000600f7
:100fa0000200fa000000eb00000f78005a88a80049
:100fb0003000200030158800a1e2a800a022a8007f
:100fc0000000eb00000f7800f00420009e0f1000de
:100fd00002003c001e0fe800fbff3700000000008d
:100fe000a0c2bf000080fb00610060000000e000c4
:100ff000fbff32000000eb00000f78003001200002
:101000009e0f100002003c001e0fe800fbff37009f
:101010000114800061418800604180004400de00ce
:101020003de8b7003dc8bf000080fb004400de0083
:1010300054e8b70054c8bf006f40600054e8b700e0
:101040004085200091c0b30090cf1000040036000e
:1010500054c8bf007043b00054e8b7000300370025
:1010600054c8bf000043b00054e8b7003dc8bf00fb
:101070006f40600055e8b7005085200091c0b30074
:1010800090cf10000400360055c8bf007043b00078
:1010900055e8b7000300370055c8bf000043b00053
:1010a00055e8b70054c8bf000040d00054e8b7006e
:1010b00055c8bf000040d00055e8b7000000eb0065
:1010c000d043880000c8b3007ce8b7000000eb0004
:1010d0001041880000020700f40107005a88a900a7
:1010e0000080fa00000006000000fa002208e2007a
:1010f0000e003a00d4c2bf000080fb006100600017
:101100000000a00061416000412d20009140780066
:10111000e0cfb30000c0600002407000d4e2b7002e
:10112000d4c2bf00d422a90010003700d4c2bf002f
:10113000d402a900d4c2bf000080fb000000d1008f
:101140000080fb00610060000000a00061406000c2
:101150000041d000412d200091407800d0cfb30055
:1011600000c0600002407000d4e2b7000080fa00c6
:10117000000006000200fa0000418000000f780025
:101180001e007800e10f5000170032001e007800aa
:101190000000e000040032001e007800e20f500062
:1011a0002400320036003700d4c2bf000080fb00ac
:1011b000610060000000a00061416000412d20003e
:1011c00091407800e0cfb30000c0600002407000a2
:1011d000d4e2b700d4c2bf00d422a900d4c2bf0059
:1011e000d442a90028003700d4c2bf00d402a9000d
:1011f000d4c2bf000080fb000000d1000080fb00d3
:10120000610060000000a000614060000041d0006b
:10121000412d200091407800d0cfb30000c0600085
:1012200002407000d4e2b700d4c2bf00d442a9008b
:1012300015003700d4c2bf00d402a900d4c2bf0039
:10124000d422a900d4c2bf000080fb004200de000f
:101250000080fb00610060000000a00061406000b1
:101260004201dd00412d200091407800b0cfb30055
:1012700000c0600002407000d4e2b70002003700f6
:1012800010002000c04288000080fa000000060024
:101290000200fa000000eb00000f7800d4c2bf008b
:1012a0000080fb004200de000080fb006100600067
:1012b0000000e00002003a0011002000010f780059
:1012c0009e40780061c060004201dd00412d200099
:1012d00091407800b0cfb30000c0600002407000c1
:1012e000d4e2b7000080fa00000006000400fa0013
:1012f000000f7800400020009e0f10000300360011
:1013000010002000c04288004a003700a1e2a80077
:1013100040408000e30f500022003e00404080002b
:101320000000e800404088000000eb001007980033
:101330001e0090009e0f50003e003100010a29005f
:101340001e0090000000d000010040001000780056
:1013500030158800a022a800a0c2bf000080fb00ba
:10136000610060000000e000fbff320041832000cc
:101370001e0090000000d0000101400041832000c9
:101380001e0090000000d00081004000001480008a
:10139000110940001e0090000000e80010079800ae
:1013a000e3ff37000000eb0040408800408320004e
:1013b000100078004200de00604188004083200079
:1013c000100090004200de00704188004083200041
:1013d000200090004200de00804188004083200011
:1013e000300090004200de00904188000000eb00d9
:1013f000100798001e0090009e0f50000a00310058
:10140000418320001e0090000000d00081004000b9
:101410000000eb00800878001e0090000000e8004b
:1014200010079800f3ff3700604180004400de00a1
:101430003de8b7000080fa00000006000200fa0054
:10144000810a2900e04080000000d0000100400037
:1014500001302100108040004041880000418000a0
:101460000000e900000f78001e007800e20f500035
:10147000190032009e007800e28f500007003e0005
:101480001e0078000000e0000b0032009e00780093
:10149000e18f50000c003200230037001e0078005e
:1014a000e30f5000100032009e007800e48f5000df
:1014b000110032001c003700e04080000080e8008e
:1014c000e04088001b003700e040800064004000de
:1014d000e040880017003700f04080000000e8007e
:1014e000f040880013003700e040800068004000b2
:1014f000e04088000f0037000a08e20005003a00cb
:101500001000200050408800003e2100404188002b
:10151000080037000000eb00504088000032210036
:101520004041880003003700e04080000000e800f0
:10153000e0408800e0408000ff0f500002003600cd
:101540000000eb00e0408800f0408000eb0f50000e
:10155000020036000000eb00f040880040418000af
:10156000020007000080fa00000006000400fa00f4
:10157000000f78000000eb00100798008500a9001c
:1015800020c2bf000080fb00610060000000e0009e
:10159000030032002011800010079800f8ff370088
:1015a00020c2a9008500a900c9c2bf00c922a900a4
:1015b0001e0078002011880085c0bf000080fb005d
:1015c000610060000000e000fbff3200c922a800bb
:1015d0000080fa00000006000200fa00200020004f
:1015e00030158800a1e2a8000000eb0050418800ff
:1015f000a022a8000000eb00000f780010032000dc
:101600009e0f100002003c001e0fe800fbff370099
:1016100000000000a0c2bf000080fb00610060006d
:101620000000e000fbff32000000eb00000f78003c
:10163000100320009e0f100002003c001e0fe80067
:10164000fbff3700001480005041880050418000ab
:101650004400de003ce8b7000080fa00000006000d
:101660000000fa000000eb00b0108800a00020008d
:10167000f010880000002800c01088008700a90032
:101680008f00a9000000eb00204288008720a900fd
:101690008f20a8001942a80019e2a80017e2a800ac
:1016a0000080fa00000006000400fa00000f780035
:1016b000110798001e007800304288008720a9009a
:1016c0008f20a8000000eb00c010880019e2a800dd
:1016d0001942a8000080fa00000006000a00fa0083
:1016e0000000eb004007980018c2bf000080fb001c
:1016f0000000d1000080fb00610060000000e000fd
:101700000200320010002000c042880000000000eb
:1017100018c2bf000080fb00610060000000e00014
:10172000090032004e0090000000d0000e00400082
:10173000e1108000010878004e0090000000e800f1
:1017400040079800f2ff37001e00780070428800c2
:101750000000eb00400798000080fa00000006003f
:101760000800fa00000f780081408000f07022002d
:10177000808f5000110036000000eb008040880090
:1017800002002400c361240060408000714080009a
:10179000dbfa07001cfb0700c0448800c04480003f
:1017a0002003b000a0448800c0448000e1fc2f006a
:1017b00001004000b04488001800370080408000dd
:1017c0000000e800804088001e007800cf80de0026
:1017d00028fb070020079800310798001e00e00052
:1017e00007003d0002002000037824002e00900036
:1017f000be0090004bfb07002007980031079800bf
:101800002e019000be019000604080007140800079
:1018100044fb07006040880071408800b009200048
:101820009e0f100003003e00300620009e0f1000a7
:1018300003003e001000200010079800020037004f
:101840008000eb00110798001e0090000080fa0055
:10185000000006000400fa00000f7800a14080009c
:10186000f0042000808f5000050036000000eb00df
:10187000a0408800100020001007980008003700e2
:10188000a04080000000e800a04088001e00780012
:1018900000418800e9fe07000000eb0010079800f7
:1018a0001e0090000080fa00000006000000fa0010
:1018b0000000eb00104488000000eb00204488008a
:1018c0000000eb00d043880000c8b3007ce8b700fc
:1018d0000080fa00000006000000fa000000eb00a3
:1018e000304488000000eb00404488000000eb001a
:1018f000504488000000eb00804488006000b8007d
:1019000060448800714488000000eb009044880027
:101910000080fa00000006000400fa000040eb001e
:10192000004f7800d0438000e60f500005003e00d5
:1019300041852000914078007cc8bf0000cf600046
:1019400024003700d0438000e60f50000800360026
:10195000d0438000ed0f500005003e00518520006f
:10196000914078007cc8bf0000cf600019003700ac
:10197000d0438000ed0f500006003600d0438000b9
:10198000f40f500003003e0020c3b300004f780066
:1019900010003700d0438000f40f50000d003600d7
:1019a0000000eb00904288000000eb00d04388006c
:1019b00000c8b3007ce8b700100020001041880088
:1019c000c5ff0700b9ff07000000eb0010079800f3
:1019d000160037007cc8bf000080fb000000d1006b
:1019e0007ce8b700d04380000000e800d0438800c6
:1019f000d0438000e70f500003003200d043800046
:101a0000ee0f500002003a0000c8b3007ce8b700b7
:101a10001e04e0000300320020032000100798009d
:101a20000200370010032000100798001e009000ed
:101a30000080fa00000006000400fa001044800054
:101a4000100798009e009000e18f500012003200b5
:101a50001e0090000000e000070032009e00900091
:101a6000e28f5000460032001e009000e30f50004d
:101a70004d0032005b003700100020001044880049
:101a80005208e20059003a008000eb0050032000a9
:101a900005ff0700550037005208e20002003a0037
:101aa0000eff0700020037009bff0700704288000e
:101ab00071428000f0022000808f50000400360048
:101ac0007142800090032000808f50000300360098
:101ad000100020001044880044003700704280004d
:101ae00001fd2f00010f4000400020009e0f10005c
:101af00003003a0010002000104488003b0037002b
:101b00001e00e00008003200310020009e8f10000f
:101b100005003e001e007800b04288002000200032
:101b20001044880031003700710020009e8f1000a3
:101b300008003a00100020001041880066ff0700ee
:101b40005aff07008000eb0070032000d6fe07005c
:101b500026003700800020009e0f100005003a008c
:101b60000000eb00104188005bff07004fff0700fb
:101b70001e0037000000eb00104488001b003700f7
:101b8000b042800033ff07000000e0000300320095
:101b9000300020001044880014003700200020008e
:101ba000104488001100370021448000f00b200011
:101bb000808f500006003e00204480000000e800b6
:101bc00020448800300020001044880007003700bf
:101bd0000000eb00204488000000eb001044880067
:101be000020037000000eb00104488000080fa007b
:101bf000000006000400fa0030448000100798003e
:101c00009e009000e28f5000590032001e009000ac
:101c1000e20f500007003e009e0090000100e0002f
:101c20000e0032001e009000e10f50003a0032001a
:101c3000c00037009e009000e48f50008d003200fd
:101c40001e009000e30f5000510036009e009000ef
:101c5000e58f5000a9003200b60037005efe070095
:101c60003cc8bf000080fb00bdfe07000000e00094
:101c7000180032006044800071448000e00f500082
:101c8000e08f58000a003200200020003044880015
:101c90000000eb00504488000000eb004044880046
:101ca0006000b8006044880071448800a3003700d9
:101cb0000000eb00304488006044800071448000e4
:101cc00061004000e0804800604488007144880062
:101cd0009a00370040448000f00f500005003600a5
:101ce00010002000304488000000eb0040448800d1
:101cf000050037000000eb003044880040448000bd
:101d00000000e80040448800804480000000e800b3
:101d1000804488008900370070fe07007042800010
:101d200001fd2f00010f4000700020009e0f1000e9
:101d300005003a001000200010418800e6fe070070
:101d4000dafe070007003700810020009e8f100098
:101d500004003a000000eb0010418800defe07009e
:101d6000d2fe07000000eb0030448800730037000b
:101d70008000eb00500320004bfe070030002000e5
:101d8000304488000000eb00804488006b0037007e
:101d900050448000e80f5000050036000000eb00c2
:101da0005044880040002000304488006300370021
:101db000504480000000e8005044880006fe070000
:101dc00040c3b3003c48e30003003a0030c3b30013
:101dd0003ce8b7001100370050c3b3003c48e300b3
:101de00003003a0060c3b3003ce8b7000b003700c3
:101df00070c3b3003c48e30003003a0060c3b30083
:101e00003ce8b7000500370080c3b3003c48e3005e
:101e100002003a0090c3b3003ce8b7003000200055
:101e2000304488003cc8bf000080fb008000eb000d
:101e30001dfe070081448000f0052000808f5000c7
:101e4000080036000000eb00304488000000eb0082
:101e5000804488006000b8006044880071448800b5
:101e600036003700804480000000e800804488008d
:101e70003200370019fe07007042800001fd2f007c
:101e8000010f4000700020009e0f100005003a0076
:101e900010002000104188008ffe070083fe07001d
:101ea00026003700810020009e8f100005003a00b8
:101eb0000000eb001041880087fe07007bfe070052
:101ec0001e003700400020009e0f100008003a005e
:101ed0000000eb00804488006000b8006044880087
:101ee00071448800500020003044880013003700ff
:101ef00030002000304488001000370090448000fb
:101f0000fc0f5000050036000000eb0090448800f4
:101f10000000eb0030448800080037009044800047
:101f20000000e80090448800500020003044880001
:101f3000020037000000eb00304488000080fa0007
:101f4000000006000400fa0026fa0700d0428000d4
:101f5000610060000000e000fcff32005a08a900a8
:101f6000d3fa07000000e000050032002208e2007a
:101f7000020032001fff070001003700aefe07001d
:101f8000dbfa0700ebfa07000cfb07000000e0009b
:101f90000100320085fb07003cfb07000000e00069
:101fa0000100320050fc07004afb07000000e0007f
:101fb000190032005808e200150032000000eb0062
:101fc000000f7800d4c2bf000080fb004300de0099
:101fd0000080fb00610060000000e00002003a00a9
:101fe00011002000010f78009e40780061c0600061
:101ff0004301dd00412d20009140780070cfb300f7
:1020000000c0600002407000d4e2b7000200370058
:10201000d4c2bf00d462a90040fb07007042800018
:102020004300dd004ffb07000000e000c7ff320067
:102030002408e200150032000000eb0010079800b1
:10204000d4c2bf000080fb004200de000080fb0025
:10205000610060000000e00002003a001100200072
:1020600011079800ae40900061c060004201dd00a1
:10207000412d200091407800b0cfb30000c0600037
:1020800002407000d4e2b700b0ff3700d4c2bf00f6
:10209000d442a900adff37000000fa00d4c2bf004f
:1020a0000080fb004300de000080fb006100600058
:1020b00061006000614060004301dd00412d2000af
:1020c0009140780070cfb30000c060000240700003
:1020d000d4e2b700ffff37000000fa00d4c2bf000f
:1020e0000080fb004300de000080fb006100600018
:1020f00061006000614060004301dd00412d20006f
:102100009140780070cfb30000c0600002407000c2
:10211000d4e2b700ffff37000000fa0010002000f3
:10212000c04288000080fa00000006000000fa00ab
:1021300010002000c04288000080fa000000060065
:020000040000fa
:100008002411000024110000241100002411000014
:100018002411000024110000241100002411000004
:100028002411000024110000241100003c050000e8
:1000380024110000241100002411000024110000e4
:1000480024110000241100002411000024110000d4
:1000580024110000241100002411000024110000c4
:1000680024110000241100002411000024110000b4
:1000780024110000241100002411000024110000a4
:10008800241100004605000024110000241100007e
:100098002411000024110000241100002411000084
:1000a8002411000024110000241100002411000074
:1000b8002411000024110000241100002411000064
:1000c8002411000024110000241100002411000054
:1000d8002411000024110000241100002411000044
:1000e8002411000024110000241100002411000034
:0800f800241100002411000096
:020000040000fa
:100108002411000024110000241100002411000013
:100118002411000024110000241100002411000003
:100128002411000024110000241100003c050000e7
:1001380024110000241100002411000024110000e3
:1001480024110000241100002411000024110000d3
:1001580024110000241100002411000024110000c3
:1001680024110000241100002411000024110000b3
:1001780024110000241100002411000024110000a3
:10018800241100004605000024110000241100007d
:100198002411000024110000241100002411000083
:1001a8002411000024110000241100002411000073
:1001b8002411000024110000241100002411000063
:1001c8002411000024110000241100002411000053
:1001d8002411000024110000241100002411000043
:1001e8002411000024110000241100002411000033
:0801f800241100002411000095
:020000040000fa
:10214000030000000400000005000000080000007b
:102150007f00000098000000b0000000c6000000f2
:10216000d9000000e9000000f5000000fc000000bc
:10217000ff000000fc000000f5000000e900000086
:10218000d9000000c6000000b00000009800000068
:102190007f000000660000004e00000038000000d4
:1021a00025000000150000000900000002000000ea
:1021b00000000000020000000900000015000000ff
:1021c00025000000380000004e00000066000000fe
:1021d0007f000000bf000000ee000000ff000000d4
:1021e000ee000000bf0000007f0000003f00000084
:1021f0001000000000000000100000003f00000080
:020000040000fa
:102200007a080000200000000200000000008000aa
:10221000003100000100000000000000000000008c
:102220000000000000000000000000000000b100fd
:10223000004d00007f000000000800007a00000050
:08224000000000000000000096
:020000040000fa
:042248000000fe0094
:00000001FF
